{
  "contractName": "rps",
  "abi": [
    {
      "constant": false,
      "inputs": [],
      "name": "play",
      "outputs": [],
      "payable": false,
      "stateMutability": "nonpayable",
      "type": "function"
    },
    {
      "constant": false,
      "inputs": [
        {
          "name": "choiceStr",
          "type": "string"
        }
      ],
      "name": "register",
      "outputs": [],
      "payable": true,
      "stateMutability": "payable",
      "type": "function"
    },
    {
      "constant": false,
      "inputs": [],
      "name": "withdraw",
      "outputs": [
        {
          "name": "",
          "type": "bool"
        }
      ],
      "payable": false,
      "stateMutability": "nonpayable",
      "type": "function"
    },
    {
      "constant": true,
      "inputs": [
        {
          "name": "s1",
          "type": "string"
        },
        {
          "name": "s2",
          "type": "string"
        }
      ],
      "name": "compareStringsbyBytes",
      "outputs": [
        {
          "name": "",
          "type": "bool"
        }
      ],
      "payable": false,
      "stateMutability": "pure",
      "type": "function"
    }
  ],
  "bytecode": "0x608060405264e8d4a510006003556501d1a94a200060045534801561002357600080fd5b50610880806100336000396000f300608060405260043610610062576000357c0100000000000000000000000000000000000000000000000000000000900463ffffffff1680633ccfd60b1461006757806393e84cd914610096578063e9a734ff146100ad578063f2c298be14610174575b600080fd5b34801561007357600080fd5b5061007c6101d0565b604051808215151515815260200191505060405180910390f35b3480156100a257600080fd5b506100ab6102a4565b005b3480156100b957600080fd5b5061015a600480360381019080803590602001908201803590602001908080601f0160208091040260200160405190810160405280939291908181526020018383808284378201915050505050509192919290803590602001908201803590602001908080601f0160208091040260200160405190810160405280939291908181526020018383808284378201915050505050509192919290505050610405565b604051808215151515815260200191505060405180910390f35b6101ce600480360381019080803590602001908201803590602001908080601f01602080910402602001604051908101604052809392919081815260200183838082843782019150505050505091929192905050506104de565b005b6000600560009054906101000a900473ffffffffffffffffffffffffffffffffffffffff1673ffffffffffffffffffffffffffffffffffffffff163373ffffffffffffffffffffffffffffffffffffffff1614151561022e57600080fd5b600560009054906101000a900473ffffffffffffffffffffffffffffffffffffffff1673ffffffffffffffffffffffffffffffffffffffff166108fc6001549081150290604051600060405180830381858888f19350505050158015610298573d6000803e3d6000fd5b50600060018190555090565b6000806000806102b26106a4565b9350836002548115156102c157fe5b049250600091505b6006805490508210156103e5576006828154811015156102e557fe5b9060005260206000200160009054906101000a900473ffffffffffffffffffffffffffffffffffffffff1690506001600281111561031f57fe5b600760008373ffffffffffffffffffffffffffffffffffffffff1673ffffffffffffffffffffffffffffffffffffffff16815260200190815260200160002060010160009054906101000a900460ff16600281111561037a57fe5b14156103d8578073ffffffffffffffffffffffffffffffffffffffff166108fc849081150290604051600060405180830381858888f193505050501580156103c6573d6000803e3d6000fd5b50826002600082825403925050819055505b81806001019250506102c9565b600254600160008282540192505081905550600060028190555050505050565b6000816040518082805190602001908083835b60208310151561043d5780518252602082019150602081019050602083039250610418565b6001836020036101000a038019825116818451168082178552505050505050905001915050604051809103902060001916836040518082805190602001908083835b6020831015156104a4578051825260208201915060208101905060208303925061047f565b6001836020036101000a03801982511681845116808217855250505050505090500191505060405180910390206000191614905092915050565b60006104e861082f565b600454341415156104f857600080fd5b6000600760003373ffffffffffffffffffffffffffffffffffffffff1673ffffffffffffffffffffffffffffffffffffffff168152602001908152602001600020600001541415151561054a57600080fd5b61055383610789565b91506000600281111561056257fe5b82600281111561056e57fe5b1415151561057b57600080fd5b604080519081016040528034815260200183600281111561059857fe5b815250905080600760003373ffffffffffffffffffffffffffffffffffffffff1673ffffffffffffffffffffffffffffffffffffffff1681526020019081526020016000206000820151816000015560208201518160010160006101000a81548160ff0219169083600281111561060b57fe5b0217905550905050600354600160008282540192505081905550600354340360026000828254019250508190555060063390806001815401808255809150509060018203906000526020600020016000909192909190916101000a81548173ffffffffffffffffffffffffffffffffffffffff021916908373ffffffffffffffffffffffffffffffffffffffff16021790555050505050565b60008060008060009250600091505b600680549050821015610780576006828154811015156106cf57fe5b9060005260206000200160009054906101000a900473ffffffffffffffffffffffffffffffffffffffff1690506001600281111561070957fe5b600760008373ffffffffffffffffffffffffffffffffffffffff1673ffffffffffffffffffffffffffffffffffffffff16815260200190815260200160002060010160009054906101000a900460ff16600281111561076457fe5b14156107735782806001019350505b81806001019250506106b3565b82935050505090565b60006107ca826040805190810160405280600481526020017f726f636b00000000000000000000000000000000000000000000000000000000815250610405565b156107d8576002905061082a565b610817826040805190810160405280600881526020017f73636973736f7273000000000000000000000000000000000000000000000000815250610405565b15610825576001905061082a565b600090505b919050565b6040805190810160405280600081526020016000600281111561084e57fe5b815250905600a165627a7a723058205c8abdd801c097ba0d04baffe0cc2c4989b2e2406e3cacb4edd9aabcae4f2f480029",
  "source": "// simple rock paper scissors game on ethereum in a very naive implementation, just to showcase some basic features of Solidity\npragma solidity 0.4.24;\n\ncontract rps{\n    mapping (string => mapping(string => int)) payoffMatrix;\n    uint ownerBalance;\n    uint balance;\n    uint fee = 1 szabo;\n    uint bid = 2 szabo;\n    address owner;\n    address[] registerdPlayersAddresses;\n    mapping (address => Player) players;\n    struct Player {\n        uint bid;\n        Choice choice;\n    }\n    enum State { Active, Inactive }\n    \n    enum Choice { None, Scissor, Rock }\n\n\n    modifier ownerOnly {\n        require(msg.sender == owner);\n        _;\n    }\n\n    modifier notRegisteredYet\n    {\n        require(players[msg.sender].bid != 0);\n        _;\n    }\n    \n    modifier sentEnoughCash()\n    {\n        if (msg.value != bid)\n            revert();\n        else\n            _;\n    }\n\n    function stringToChoice(string choice) private pure returns (Choice) {\n        if(compareStringsbyBytes(choice, \"rock\")) {\n            return Choice.Rock;\n        }\n        else if(compareStringsbyBytes(choice, \"scissors\")) {\n            return Choice.Scissor;\n        }\n        else return Choice.None;\n    }\n    \n    function getWinnersCount() view private returns (uint) {\n        uint winnerCount = 0;\n        for (uint i=0; i<registerdPlayersAddresses.length; i++) {\n            address playerAddress = registerdPlayersAddresses[i];\n            if(players[playerAddress].choice == Choice.Scissor) {\n                winnerCount++;\n            }  \n        }\n        return winnerCount;\n    }\n    \n    function play() public {\n        // for simplicity we just have rock and scissor - and return money only for winners\n        // do not ask me why anyone would take scissor\n        // draw considered as lose\n      \n        uint winnersCount = getWinnersCount();\n        \n        uint share = balance / winnersCount;\n        for (uint j=0; j<registerdPlayersAddresses.length; j++) {\n            address playerAddress = registerdPlayersAddresses[j];\n            if(players[playerAddress].choice == Choice.Scissor) {\n                playerAddress.transfer(share);\n                balance -= share;\n            }  \n        }\n        \n        // add some undevided token to owner\n        ownerBalance += balance;\n        balance = 0;\n    }\n\n    function register(string choiceStr) public payable\n        sentEnoughCash\n        notRegisteredYet  \n    {\n        Choice choice = stringToChoice(choiceStr);\n        require(choice != Choice.None);\n        Player memory player = Player(msg.value, choice);\n        players[msg.sender] = player;\n        ownerBalance += fee;\n        balance += msg.value - fee;\n        registerdPlayersAddresses.push(msg.sender);\n \n    }\n    \n    function withdraw() ownerOnly public returns(bool) {\n        owner.transfer(ownerBalance);\n        ownerBalance = 0;\n    }\n    \n    function compareStringsbyBytes(string s1, string s2) public pure returns(bool){\n        return keccak256(s1) == keccak256(s2);\n    }\n}",
  "sourcePath": "/Users/volodymyr.derecha/Projects/solidity/contracts/rps.sol",
  "compiler": {
    "name": "solc",
    "version": "0.4.24+commit.e67f0147.Emscripten.clang"
  },
  "schemaVersion": "2.0.1",
  "updatedAt": "2018-07-22T10:58:29.028Z"
}