{
  "contractName": "rps",
  "abi": [
    {
      "constant": true,
      "inputs": [],
      "name": "owner",
      "outputs": [
        {
          "name": "",
          "type": "address"
        }
      ],
      "payable": false,
      "stateMutability": "view",
      "type": "function"
    },
    {
      "constant": true,
      "inputs": [
        {
          "name": "",
          "type": "uint256"
        }
      ],
      "name": "registeredPlayersAddresses",
      "outputs": [
        {
          "name": "",
          "type": "address"
        }
      ],
      "payable": false,
      "stateMutability": "view",
      "type": "function"
    },
    {
      "constant": true,
      "inputs": [],
      "name": "gameBalance",
      "outputs": [
        {
          "name": "",
          "type": "uint256"
        }
      ],
      "payable": false,
      "stateMutability": "view",
      "type": "function"
    },
    {
      "constant": true,
      "inputs": [],
      "name": "fee",
      "outputs": [
        {
          "name": "",
          "type": "uint256"
        }
      ],
      "payable": false,
      "stateMutability": "view",
      "type": "function"
    },
    {
      "constant": true,
      "inputs": [
        {
          "name": "",
          "type": "address"
        }
      ],
      "name": "players",
      "outputs": [
        {
          "name": "bid",
          "type": "uint256"
        },
        {
          "name": "choice",
          "type": "uint8"
        }
      ],
      "payable": false,
      "stateMutability": "view",
      "type": "function"
    },
    {
      "inputs": [],
      "payable": false,
      "stateMutability": "nonpayable",
      "type": "constructor"
    },
    {
      "constant": false,
      "inputs": [],
      "name": "getGameBalance",
      "outputs": [
        {
          "name": "",
          "type": "uint256"
        }
      ],
      "payable": false,
      "stateMutability": "nonpayable",
      "type": "function"
    },
    {
      "constant": false,
      "inputs": [],
      "name": "getRegistered",
      "outputs": [
        {
          "name": "",
          "type": "address[]"
        }
      ],
      "payable": false,
      "stateMutability": "nonpayable",
      "type": "function"
    },
    {
      "constant": false,
      "inputs": [],
      "name": "play",
      "outputs": [],
      "payable": false,
      "stateMutability": "nonpayable",
      "type": "function"
    },
    {
      "constant": false,
      "inputs": [
        {
          "name": "choiceStr",
          "type": "string"
        }
      ],
      "name": "register",
      "outputs": [],
      "payable": true,
      "stateMutability": "payable",
      "type": "function"
    },
    {
      "constant": false,
      "inputs": [],
      "name": "withdraw",
      "outputs": [
        {
          "name": "",
          "type": "bool"
        }
      ],
      "payable": false,
      "stateMutability": "nonpayable",
      "type": "function"
    },
    {
      "constant": true,
      "inputs": [
        {
          "name": "s1",
          "type": "string"
        },
        {
          "name": "s2",
          "type": "string"
        }
      ],
      "name": "compareStringsbyBytes",
      "outputs": [
        {
          "name": "",
          "type": "bool"
        }
      ],
      "payable": false,
      "stateMutability": "pure",
      "type": "function"
    }
  ],
  "bytecode": "0x608060405260006001556001600255600260035534801561001f57600080fd5b5033600460006101000a81548173ffffffffffffffffffffffffffffffffffffffff021916908373ffffffffffffffffffffffffffffffffffffffff160217905550610db3806100706000396000f3006080604052600436106100af576000357c0100000000000000000000000000000000000000000000000000000000900463ffffffff1680633ccfd60b146100b45780637a6543e2146100e35780638da5cb5b1461014f57806393e84cd9146101a65780639f6fc45f146101bd578063a108b6641461022a578063c574d15614610255578063ddca3f4314610280578063e2eb41ff146102ab578063e9a734ff14610317578063f2c298be146103de575b600080fd5b3480156100c057600080fd5b506100c961043a565b604051808215151515815260200191505060405180910390f35b3480156100ef57600080fd5b506100f8610588565b6040518080602001828103825283818151815260200191508051906020019060200280838360005b8381101561013b578082015181840152602081019050610120565b505050509050019250505060405180910390f35b34801561015b57600080fd5b50610164610616565b604051808273ffffffffffffffffffffffffffffffffffffffff1673ffffffffffffffffffffffffffffffffffffffff16815260200191505060405180910390f35b3480156101b257600080fd5b506101bb61063c565b005b3480156101c957600080fd5b506101e86004803603810190808035906020019092919050505061078b565b604051808273ffffffffffffffffffffffffffffffffffffffff1673ffffffffffffffffffffffffffffffffffffffff16815260200191505060405180910390f35b34801561023657600080fd5b5061023f6107c9565b6040518082815260200191505060405180910390f35b34801561026157600080fd5b5061026a6107cf565b6040518082815260200191505060405180910390f35b34801561028c57600080fd5b506102956107d9565b6040518082815260200191505060405180910390f35b3480156102b757600080fd5b506102ec600480360381019080803573ffffffffffffffffffffffffffffffffffffffff1690602001909291905050506107df565b6040518083815260200182600281111561030257fe5b60ff1681526020019250505060405180910390f35b34801561032357600080fd5b506103c4600480360381019080803590602001908201803590602001908080601f0160208091040260200160405190810160405280939291908181526020018383808284378201915050505050509192919290803590602001908201803590602001908080601f0160208091040260200160405190810160405280939291908181526020018383808284378201915050505050509192919290505050610810565b604051808215151515815260200191505060405180910390f35b610438600480360381019080803590602001908201803590602001908080601f01602080910402602001604051908101604052809392919081815260200183838082843782019150505050505091929192905050506108e9565b005b6000600460009054906101000a900473ffffffffffffffffffffffffffffffffffffffff1673ffffffffffffffffffffffffffffffffffffffff163373ffffffffffffffffffffffffffffffffffffffff16141515610501576040517f08c379a00000000000000000000000000000000000000000000000000000000081526004018080602001828103825260148152602001807f53686f756c64206265206f776e6572206f6e6c7900000000000000000000000081525060200191505060405180910390fd5b600460009054906101000a900473ffffffffffffffffffffffffffffffffffffffff1673ffffffffffffffffffffffffffffffffffffffff166108fc3073ffffffffffffffffffffffffffffffffffffffff16319081150290604051600060405180830381858888f19350505050158015610580573d6000803e3d6000fd5b506001905090565b6060600580548060200260200160405190810160405280929190818152602001828054801561060c57602002820191906000526020600020905b8160009054906101000a900473ffffffffffffffffffffffffffffffffffffffff1673ffffffffffffffffffffffffffffffffffffffff16815260200190600101908083116105c2575b5050505050905090565b600460009054906101000a900473ffffffffffffffffffffffffffffffffffffffff1681565b60008060008061064a610bd7565b93508360015481151561065957fe5b049250600091505b60058054905082101561077d5760058281548110151561067d57fe5b9060005260206000200160009054906101000a900473ffffffffffffffffffffffffffffffffffffffff169050600160028111156106b757fe5b600660008373ffffffffffffffffffffffffffffffffffffffff1673ffffffffffffffffffffffffffffffffffffffff16815260200190815260200160002060010160009054906101000a900460ff16600281111561071257fe5b1415610770578073ffffffffffffffffffffffffffffffffffffffff166108fc849081150290604051600060405180830381858888f1935050505015801561075e573d6000803e3d6000fd5b50826001600082825403925050819055505b8180600101925050610661565b600060018190555050505050565b60058181548110151561079a57fe5b906000526020600020016000915054906101000a900473ffffffffffffffffffffffffffffffffffffffff1681565b60015481565b6000600154905090565b60025481565b60066020528060005260406000206000915090508060000154908060010160009054906101000a900460ff16905082565b6000816040518082805190602001908083835b6020831015156108485780518252602082019150602081019050602083039250610823565b6001836020036101000a038019825116818451168082178552505050505050905001915050604051809103902060001916836040518082805190602001908083835b6020831015156108af578051825260208201915060208101905060208303925061088a565b6001836020036101000a03801982511681845116808217855250505050505090500191505060405180910390206000191614905092915050565b60006108f3610d62565b6003543414151561096c576040517f08c379a000000000000000000000000000000000000000000000000000000000815260040180806020018281038252601d8152602001807f496e636f7272656374206269642c2073686f756420626520322077656900000081525060200191505060405180910390fd5b6000600660003373ffffffffffffffffffffffffffffffffffffffff1673ffffffffffffffffffffffffffffffffffffffff16815260200190815260200160002060000154141515610a26576040517f08c379a00000000000000000000000000000000000000000000000000000000081526004018080602001828103825260178152602001807f5573657220616c7265616479207265676973746572656400000000000000000081525060200191505060405180910390fd5b610a2f83610cbc565b915060006002811115610a3e57fe5b826002811115610a4a57fe5b14151515610ac0576040517f08c379a00000000000000000000000000000000000000000000000000000000081526004018080602001828103825260208152602001807f63686f6963652073686f756c6420626520726f636b206f722073636973736f7281525060200191505060405180910390fd5b60053390806001815401808255809150509060018203906000526020600020016000909192909190916101000a81548173ffffffffffffffffffffffffffffffffffffffff021916908373ffffffffffffffffffffffffffffffffffffffff160217905550506040805190810160405280348152602001836002811115610b4357fe5b815250905080600660003373ffffffffffffffffffffffffffffffffffffffff1673ffffffffffffffffffffffffffffffffffffffff1681526020019081526020016000206000820151816000015560208201518160010160006101000a81548160ff02191690836002811115610bb657fe5b02179055509050506002543403600160008282540192505081905550505050565b60008060008060009250600091505b600580549050821015610cb357600582815481101515610c0257fe5b9060005260206000200160009054906101000a900473ffffffffffffffffffffffffffffffffffffffff16905060016002811115610c3c57fe5b600660008373ffffffffffffffffffffffffffffffffffffffff1673ffffffffffffffffffffffffffffffffffffffff16815260200190815260200160002060010160009054906101000a900460ff166002811115610c9757fe5b1415610ca65782806001019350505b8180600101925050610be6565b82935050505090565b6000610cfd826040805190810160405280600481526020017f726f636b00000000000000000000000000000000000000000000000000000000815250610810565b15610d0b5760029050610d5d565b610d4a826040805190810160405280600881526020017f73636973736f7273000000000000000000000000000000000000000000000000815250610810565b15610d585760019050610d5d565b600090505b919050565b60408051908101604052806000815260200160006002811115610d8157fe5b815250905600a165627a7a72305820126ee8f38729539fa3ed5349d858a9abbc33dc87cb06006c9fc4ed4cf5d853eb0029",
  "source": "// simple rock paper scissors game on ethereum in a very naive implementation, just to showcase some basic features of Solidity\npragma solidity 0.4.24;\n\ncontract rps{\n    mapping (string => mapping(string => int)) payoffMatrix;\n    uint public gameBalance = 0;\n    uint public fee = 1 wei;\n    uint bid = 2 wei;\n    address public owner;\n    address[] public registeredPlayersAddresses;\n\n    function getGameBalance() public returns(uint) {\n        return gameBalance;\n    }\n\n    function getRegistered() public returns(address[]) {\n        return registeredPlayersAddresses;\n    }\n\n    mapping (address => Player) public players;\n    struct Player {\n        uint bid;\n        Choice choice;\n    }\n    enum State { Active, Inactive }\n    \n    enum Choice { None, Scissor, Rock }\n\n    constructor() {\n        owner = msg.sender;\n       // registeredPlayersAddresses.push(owner);\n    }\n\n    modifier ownerOnly {\n        require(msg.sender == owner, \"Should be owner only\");\n        _;\n    }\n\n    modifier notRegisteredYet\n    {\n        require(players[msg.sender].bid == 0, \"User already registered\");\n        _;\n    }\n    \n    modifier sentEnoughCash()\n    {\n        require(msg.value == bid, \"Incorrect bid, shoud be 2 wei\");\n        _;\n    }\n\n    function stringToChoice(string choice) private pure returns (Choice) {\n        if(compareStringsbyBytes(choice, \"rock\")) {\n            return Choice.Rock;\n        }\n        else if(compareStringsbyBytes(choice, \"scissors\")) {\n            return Choice.Scissor;\n        }\n        else return Choice.None;\n    }\n    \n    function getWinnersCount() view private returns (uint) {\n        uint winnerCount = 0;\n        for (uint i=0; i<registeredPlayersAddresses.length; i++) {\n            address playerAddress = registeredPlayersAddresses[i];\n            if(players[playerAddress].choice == Choice.Scissor) {\n                winnerCount++;\n            }  \n        }\n        return winnerCount;\n    }\n    \n    function play() public {\n        // for simplicity we just have rock and scissor - and return money only for winners\n        // do not ask me why anyone would take scissor\n        // draw considered as lose\n      \n        uint winnersCount = getWinnersCount();\n        \n        uint share = gameBalance / winnersCount;\n        for (uint j=0; j<registeredPlayersAddresses.length; j++) {\n            address playerAddress = registeredPlayersAddresses[j];\n            if(players[playerAddress].choice == Choice.Scissor) {\n                playerAddress.transfer(share);\n                gameBalance -= share;\n            }  \n        }\n        \n        gameBalance = 0;\n    }\n\n    function register(string choiceStr) public payable\n         sentEnoughCash\n         notRegisteredYet  \n    {\n        Choice choice = stringToChoice(choiceStr);\n        require(choice != Choice.None, \"choice should be rock or scissor\");\n        registeredPlayersAddresses.push(msg.sender);\n        Player memory player = Player(msg.value, choice);\n        players[msg.sender] = player;\n        gameBalance += msg.value - fee;\n    }\n    \n    function withdraw() ownerOnly public returns (bool) {\n        owner.transfer(this.balance);\n        return true;\n    }\n    \n    function compareStringsbyBytes(string s1, string s2) public pure returns(bool){\n        return keccak256(s1) == keccak256(s2);\n    }\n}",
  "sourcePath": "/Users/volodymyr.derecha/Projects/solidity/contracts/rps.sol",
  "compiler": {
    "name": "solc",
    "version": "0.4.24+commit.e67f0147.Emscripten.clang"
  },
  "schemaVersion": "2.0.1",
  "updatedAt": "2018-07-24T10:03:27.520Z"
}